:020000040000FA
:04000000FEEFFFF020
:020000040001F9
:10FE0F00011200C00EBE16900E03011A6F540E1B86
:10FE1F006F1200000E0401006F000EC66EA00E00E0
:10FE2F00017F6F000E7D6F12001168126803011AB7
:10FE3F009F0F50115E1050125A1250196F610044EB
:10FE4F00F418F3B19E1A8F1200000E096E000E0AFD
:10FE5F006E000E0B6E000E0C6E000E056E000E0681
:10FE6F006E000E076E000E086E1200048E08ECFF77
:10FE7F00F02CECFFF011ECFFF009ECFFF0000E108E
:10FE8F006E020E0F6E1CECFFF0B1AE51EFFFF05390
:10FE9F00EFFFF04CEFFFF000017D2B46EFFFF0FE80
:10FEAF00EFFFF0FC0EF66EFE0EF76E010EF86E0110
:10FEBF00EE00F210EE00F10900F5C4EEF4E550E1AA
:10FECF0050FAE1E250F8E10F0EF66EFE0EF76E01FA
:10FEDF000EF86E09006100D4F313F501EE01F10E77
:10FEEF000EEE6AE806FDE100013DEFFFF08083862C
:10FEFF00898C8F9295989B9EA2A5A7AAADB0B3B6F9
:10FF0F00B9BCBEC1C4C6C9CBCED0D3D5D7DADCDE1F
:10FF1F00E0E2E4E6E8EAEBEDEEF0F1F3F4F5F6F803
:10FF2F00F9FAFAFBFCFDFDFEFEFEFFFFFFFFFFFFF0
:10FF3F00FFFEFEFEFDFDFCFBFAFAF9F8F6F5F4F311
:10FF4F00F1F0EEEDEBEAE8E6E4E2E0DEDCDAD7D55D
:10FF5F00D3D0CECBC9C6C4C1BEBCB9B6B3B0ADAA9F
:10FF6F00A7A5A29E9B9895928F8C898683807C797A
:10FF7F007673706D6A6764615D5A5855524F4C497C
:10FF8F004643413E3B393634312F2C2A2825232135
:10FF9F001F1D1B1917151412110F0E0C0B0A090731
:10FFAF000605050403020201010100000000000024
:10FFBF00000101010202030405050607090A0B0CE3
:10FFCF000E0F1112141517191B1D1F212325282A77
:10FFDF002C2F313436393B3E414346494C4F525515
:10FFEF00585A5D6164676A6D707376797C59EFFF5B
:01FFFF00F011
:020000040020DA
:10000000FF0FFF0FFF0FFF0FFF0FFF0FFF0FFF0F80
:10001000FF0FFF0FFF0FFF0FFF0FFF0FFF0FFF0F70
:020000040030CA
:0A0000008CFEFFFC9FFFFFFFFFFFD7
:00000001FF
