:020000040000FA
:04000000FEEFFFF020
:020000040001F9
:10FF2E0012001200800EBE6E1200000E0401006F51
:10FF3E00000EC66E120001EE01F10E0EEE6AE8061C
:10FF4E00FDE10001BCEFFFF0000E096E000E0A6E1F
:10FF5E00000E0B6E000E0C6E000E056E000E066E81
:10FF6E00000E076E000E086E1200048E97ECFFF066
:10FF7E00ABECFFF09CECFFF099ECFFF0CDECFFF05A
:10FF8E0098ECFFF0C5EFFFF0FEEFFFF00D2A400EEC
:10FF9E000D18D8A4D5EFFFF0D7EFFFF0D9EFFFF093
:10FFAE00000E0D6E610038F313F5C00E13160D50D2
:10FFBE00131261004CF4BEF4400E0F6E420E106E22
:10FFCE000F0E116E000E126EF2EFFFF00F06000E06
:10FFDE00105A115A125A0F50101011101210D8A494
:10FFEE00FBEFFFF0FDEFFFF0EDEFFFF01200A2EFE1
:02FFFE00FFF012
:020000040020DA
:10000000FF0FFF0FFF0FFF0FFF0FFF0FFF0FFF0F80
:10001000FF0FFF0FFF0FFF0FFF0FFF0FFF0FFF0F70
:020000040030CA
:0A0000008CFEFFFC9FFFFFFFFFFFD7
:00000001FF
