:020000040000FA
:0400000081EF00F09C
:10000800B441A141A141A1414000A1414000A14109
:10001800A141A141A141A141A141A141A141A141C8
:10002800A141400040004000A141A141A141A1419E
:10003800A141A141A141AC416B41A141A141A141D3
:10004800A141A141A141A14140004000A141A141DC
:10005800A141A141A1414000A141A141A141A1412A
:10006800A141A141A141A141A141A141A141A14178
:10007800A141A141A141A1414000A141A141A1410A
:10008800A141A141A141A141A141A141A141A14158
:10009800A141A141A141A1414000A141400040002E
:1000A800A141A141A141A141A141A141A141A14138
:1000B800A141A141A141A141A141A141A141A14128
:1000C800A141A141A141A141A141A141A141A14118
:1000D800A141A141A141A141A141A141A141A14108
:1000E8004000A141A141A141400040004000400022
:0E00F800A141A141A141A141FF00E8EF81F02B
:10FEFE00000009121B242D363F48415A536C657E73
:10FF0E007719100B023D342F265158434A757C67E2
:10FF1E006E323B2029161F040D7A7368615E574CB2
:10FF2E00452B2239300F061D14636A7178474E55E2
:10FF3E005C646D767F4049525B2C253E3708011A72
:10FF4E00137D746F6659504B42353C272E111803A2
:10FF5E000A565F444D727B60691E170C053A3328B2
:10FF6E00214F465D546B627970070E151C232A31A2
:10FF7E00384148535A656C777E09001B122D243F79
:10FF8E003658514A437C756E671019020B343D2664
:10FF9E002F737A6168575E454C3B3229201F160D30
:10FFAE00046A6378714E475C55222B3039060F1464
:10FFBE001D252C373E0108131A6D647F7649405B70
:10FFCE00523C352E2718110A03747D666F50594224
:10FFDE004B171E050C333A21285F564D447B726930
:10FFEE00600E071C152A233831464F545D626B7024
:02FFFE00790088
:020000040001F9
:10000000C08EFF0EE8EC82F0FF0EE8EC82F0FF0EEF
:10001000E8EC82F0FF0EE8EC82F0FF0EE8EC82F0F4
:10002000FF0EE8EC82F0FF0EE8EC82F0FF0EE8EC49
:1000300082F0FF0EE8EC82F0FF0EE8EC82F0C09E4A
:10004000000E156E000E166E000E176E000E186E66
:10005000000E0DEC81F0F8EC82F000F0010E08ECDF
:1000600083F00009D8B437EF80F039EF80F020EF4B
:1000700080F0000E156E000E166E010E176EAA0EA1
:10008000186E080E0DEC81F086EC82F000F0000E88
:10009000146E000E156E010E166EAA0E176E010E6E
:1000A00026EC82F00009D8B458EF80F05AEF80F0C7
:1000B00039EF80F0000E156E000E166E000E176EF2
:1000C000000E186E370E0DEC81F0F8EC82F000F0A7
:1000D000010E08EC83F00009D8B471EF80F073EFE3
:1000E00080F05AEF80F0400E156E000E166E000E76
:1000F000176E000E186E290E0DEC81F0F8EC82F0F0
:1001000000F0000E08EC83F00009D8B48AEF80F00C
:100110008CEF80F05AEF80F01200808386898C8FFC
:100120009295989B9EA2A5A7AAADB0B3B6B9BCBE46
:10013000C1C4C6C9CBCED0D3D5D7DADCDEE0E2E489
:10014000E6E8EAEBEDEEF0F1F3F4F5F6F8F9FAFA99
:10015000FBFCFDFDFEFEFEFFFFFFFFFFFFFFFEFEBF
:10016000FEFDFDFCFBFAFAF9F8F6F5F4F3F1F0EE1A
:10017000EDEBEAE8E6E4E2E0DEDCDAD7D5D3D0CE98
:10018000CBC9C6C4C1BEBCB9B6B3B0ADAAA7A5A2FF
:100190009E9B9895928F8C898683807C79767370EC
:1001A0006D6A6764615D5A5855524F4C49464341E8
:1001B0003E3B393634312F2C2A282523211F1D1B85
:1001C0001917151412110F0E0C0B0A090706050555
:1001D000040302020101010000000000000001010F
:1001E000010202030405050607090A0B0C0E0F1194
:1001F00012141517191B1D1F212325282A2C2F31F6
:100200003436393B3E414346494C4F5255585A5D6E
:100210006164676A6D707376797C196E000E1B6E6F
:1002200019503F0B40091A6E1A50E8EC82F01B502F
:100230001B241B6E1B501A181B6EFF0E1B24F66E20
:10024000F76AFE0EF72208006100D4F31BF515C50E
:100250001AF51A50E8EC82F01B501B241B6E1B5041
:100260001A181B6EFF0E1B24F66EF76AFE0EF7229D
:1002700008006100D4F31BF516C51AF51A50E8EC16
:1002800082F01B501B241B6E1B501A181B6EFF0E96
:100290001B24F66EF76AFE0EF72208006100D4F305
:1002A0001BF517C51AF51A50E8EC82F01B501B24F9
:1002B0001B6E1B501A181B6EFF0E1B24F66EF76A7E
:1002C000FE0EF72208006100D4F31BF518C51AF5DD
:1002D0001A50E8EC82F01B501B241B6E1B501A189E
:1002E0001B6EFF0E1B24F66EF76AFE0EF722080047
:1002F0006100D4F31BF5D8801B341A6E1A50E8EC59
:1003000082F012001F6E1FC515F51CC516F51DC520
:1003100017F51EC518F5110E0DEC81F0F8EC82F002
:10032000000E08EC83F00009D8A499EF81F09BEF50
:1003300081F09DEF81F0E7EF81F034EC83F0226EE5
:100340002228D8B4A6EF81F0A8EF81F09DEF81F0CC
:10035000FE0E2218D8B4AFEF81F0B1EF81F0B3EF09
:1003600081F0E7EF81F00D50D8A4B9EF81F0BBEF39
:1003700081F0C3EF81F0000E206E0B0E216E010E96
:100380000D6EC9EF81F0000E206E090E216E000E79
:100390000D6E000E246E000E236E23502024D96EA5
:1003A00024502120DA6E34EC83F0DF6E234A242AB5
:1003B000020E245CD8A0DFEF81F0E1EF81F0CDEFF9
:1003C00081F034EC83F034EC83F034EC83F01200F1
:1003D0001A0EF66E010EF76E010EF86E01EE00F2C7
:1003E00010EE00F10900F5C4EEF4E550E150FAE139
:1003F000E250F8E1CA0EF66E060EF76E010EF86EC8
:1004000001EE25F110EE06F00900F5C4EEF4E5501A
:10041000E150FAE101EE00F311EE00F2EE6AE55070
:10042000E150FCE1E250FAE101EE01F1120EEE6A58
:10043000E806FDE10401080E5D6F000E5E6F000E20
:100440005F6F000EF86E000162EF82F0186E010E11
:10045000196E18502518D8B430EF82F032EF82F0C0
:1004600034EF82F0000E196E14502618D8B43BEF0A
:1004700082F03DEF82F03FEF82F0000E196E1550D2
:100480002718D8B446EF82F048EF82F04AEF82F0A6
:10049000000E196E16502818D8B451EF82F053EFA1
:1004A00082F055EF82F0000E196E17502918D8B45B
:1004B0005CEF82F05EEF82F060EF82F0000E196E6A
:1004C00019501200128E6BEC83F0BCEC82F061ECE0
:1004D00083F0A2EC82F026EC83F000EC80F018ECC4
:1004E00083F0000E1C6E000E1D6E000E1E6E000EC0
:1004F00082EC81F000F0129E6AEC83F0BE9E4FEC1D
:1005000083F0BE8E7CEF82F081EF00F034EC83F05C
:10051000146E1428D8B48FEF82F091EF82F086EF3A
:1005200082F014C525F534EC83F0266E34EC83F0AC
:10053000276E34EC83F0286E34EC83F0296E34ECB3
:1005400083F01200000E096E000E0A6E000E0B6E94
:10055000000E0C6E000E056E000E066E000E076E8D
:10056000000E086E7D0E0301236F010E266FB196FB
:10057000F00E246FA1861200000E0401006F000E21
:10058000C66E000E106F6B0EC86E940EC06E310EEC
:100590000201136F320E156F120E6A6F130E6B6F1E
:1005A000A00E00017F6F000E7D6F1200610040F40D
:1005B0001DF361003CF41CF3B19811B0E2EF82F03E
:1005C000E4EF82F0E7EF82F0A19803011E911100A1
:1005D000146E610050F481F000F000F0000186BF5D
:1005E000F4EF82F0F6EF82F0EEEF82F0805112002D
:1005F00034EC83F0146E1428D8B401EF83F003EFC9
:1006000083F0F8EF82F014C52AF534EC83F0120081
:10061000146E010E156E2A501418D8B412EF83F020
:1006200014EF83F016EF83F0000E156E15501200D4
:10063000C00EBE16900E03011A6F540E1B6F000EF3
:100640001F6F010E216F310E1E6F12000001849F7B
:10065000030E846FA40E856F070E866F000E8C6FDD
:10066000030E896F848F12000001816900F000F091
:10067000000186BF3EEF83F040EF83F038EF83F058
:1006800080511200610060F313F5010E0126000E87
:1006900002220322042261004CF4D8F41100128CCF
:1006A00012BC55EF83F057EF83F050EF83F0120048
:1006B000B196129C010E0926000E0A220B220C2272
:1006C0001100D68AD68ED68C1200FFFFFFFFFFFFE7
:0806D000AE90110012001200AF
:020000040020DA
:10000000FF0FFF0FFF0FFF0FFF0FFF0FFF0FFF0F80
:10001000FF0FFF0FFF0FFF0FFF0FFF0FFF0FFF0F70
:020000040030CA
:0A0000008CFEFFFC9FFFFFFFFFFFD7
:00000001FF
