:020000040000FA
:0400000081EF00F09C
:100008000901F100F100F1004000F1004000F100A9
:10001800F100F100F100F100F100F100F100F10050
:10002800F100400040004000F100F100F100F10053
:10003800F100F100F1000201C000F100F100F1004F
:10004800F100F100F100F10040004000F100F10082
:10005800F100F100F1004000F100F100F100F100C1
:10006800F100F100F100F100F100F100F100F10000
:10007800F100F100F100F1004000F100F100F100A1
:10008800F100F100F100F100F100F100F100F100E0
:10009800F100F100F100F1004000F10040004000E3
:1000A800F100F100F100F100F100F100F100F100C0
:1000B800F100F100F100F100F100F100F100F100B0
:1000C800F100F100F100F100F100F100F100F100A0
:1000D800F100F100F100F100F100F100F100F10090
:1000E8004000F100F100F1004000400040004000F5
:1000F800F100F100F100F100FF0003EF01F080834F
:1001080086898C8F9295989B9EA2A5A7AAADB0B31D
:10011800B6B9BCBEC1C4C6C9CBCED0D3D5D7DADC3C
:10012800DEE0E2E4E6E8EAEBEDEEF0F1F3F4F5F612
:10013800F8F9FAFAFBFCFDFDFEFEFEFFFFFFFFFFEC
:10014800FFFFFEFEFEFDFDFCFBFAFAF9F8F6F5F4FA
:10015800F3F1F0EEEDEBEAE8E6E4E2E0DEDCDAD734
:10016800D5D3D0CECBC9C6C4C1BEBCB9B6B3B0AD69
:10017800AAA7A5A29E9B9895928F8C898683807C3E
:10018800797673706D6A6764615D5A5855524F4C41
:10019800494643413E3B393634312F2C2A28252302
:1001A800211F1D1B1917151412110F0E0C0B0A090C
:1001B8000706050504030202010101000000000012
:1001C80000000101010202030405050607090A0BE4
:1001D8000C0E0F1112141517191B1D1F212325288A
:1001E8002A2C2F313436393B3E414346494C4F5235
:1001F80055585A5D6164676A6D707376797C060E2E
:10020800F66E010EF76E000EF86E01EE00F210EEBB
:1002180000F10900F5C4EEF4E550E150FAE1E250CE
:10022800F8E1BE0EF66E020EF76E000EF86E01EEE5
:1002380001F110EE3FF00900F5C4EEF4E550E1508D
:10024800FAE101EE40F1110EEE6AE806FDE1040163
:10025800080E5D6F000E5E6F000E5F6F0001CDEF40
:1002680001F003011E91800E535CD8A03EEF01F00F
:1002780040EF01F043EF01F07F0E536E5268521CBD
:10028800556E531C566E56504E6E55C54DF5610051
:1002980038F51DF3610034F51CF34F905450D8B471
:1002A80058EF01F05AEF01F05BEF01F04F80B19881
:1002B800A1881E8112000002000200020002000252
:1002C8000002000400020002000200020002000214
:1002D800000400083C003C002800280024002400FA
:1002E80028002D002D002F002F00350035003C0080
:0502F80000000100FF01
:10030000610038F51DF3610034F51CF3000E4C2438
:10031000D96EDA6A060EDA22DF5000017D6F040E14
:100320004C26B1984FB097EF01F099EF01F09CEF98
:1003300001F0A19803011E911100000E486E000EFD
:10034000496E000E4A6E000E4B6E000E446E000E9B
:10035000456E000E466E000E476E7D0E0301236F44
:10036000010E266FB196F00E246FA1861200C00E0A
:10037000BE16900E03011A6F540E1B6F000E1F6FF6
:10038000010E216F310E1E6F000E536E100E526E55
:10039000010E546E35EC01F01200508E14EC02F098
:1003A000EFEC01F00DEC02F09DEC01F0B7EC01F088
:1003B000509EBE9EFAEC01F0BE8ED9EF01F081EFA7
:0203C00000F04B
:1003C400610060F351F5010E4026000E41224222E5
:1003D4004322610044F5D8F41100000E0401006FBB
:1003E400000EC66EA00E00017F6F000E7D6F12001E
:1003F400508C50BC00EF02F002EF02F0FBEF01F072
:020404001200E4
:10040800B196509C010E4826000E49224A224B22E2
:0A0418001100D68AD68ED68C120091
:06042400AE901100120071
:020000040020DA
:10000000FF0FFF0FFF0FFF0FFF0FFF0FFF0FFF0F80
:10001000FF0FFF0FFF0FFF0FFF0FFF0FFF0FFF0F70
:020000040030CA
:0A0000008CFEFFFC9FFFFFFFFFFFD7
:00000001FF
