:020000040000FA
:04000000FEEFFFF020
:020000040001F9
:10FF320012001200800EBE6E120001EE01F1120ECE
:10FF4200EE6AE806FDE10001C2EFFFF0000E0401D7
:10FF5200006F000E086F000EC66E300EC76E1200E4
:10FF6200000E0D6E000E0E6E000E0F6E000E106E65
:10FF7200000E096E000E0A6E000E0B6E000E0C6E65
:10FF82001200088E99ECFFF0B1ECFFF0A7ECFFF045
:10FF92009BECFFF0D3ECFFF09AECFFF0CBEFFFF01D
:10FFA200FEEFFFF01150D8A4D9EFFFF0DBEFFFF026
:10FFB200F4EFFFF0CFAAE0EFFFF0E2EFFFF0F4EF93
:10FFC200FFF0010E116E010E0126000E0222032225
:10FFD2000422610038F313F5C00E131601501312F8
:10FFE20061004CF4BEF4CFBAF9EFFFF0FBEFFFF083
:0EFFF200FDEFFFF0000E116E12009EEFFFF00B
:020000040020DA
:10000000FF0FFF0FFF0FFF0FFF0FFF0FFF0FFF0F80
:10001000FF0FFF0FFF0FFF0FFF0FFF0FFF0FFF0F70
:020000040030CA
:0A0000008CFEFFFC9FFFFFFFFFFFD7
:00000001FF
