:020000040000FA
:04000000FEEFFFF020
:020000040001F9
:10FEAC001200120001020408102010080402000EB7
:10FEBC000401006F000EC66E1200C00EBE16900E2E
:10FECC0003011A6F540E1B6F1200000E096E000E08
:10FEDC000A6E000E0B6E000E0C6E000E056E000E00
:10FEEC00066E000E076E000E086E1200B00EF66E57
:10FEFC00FE0EF76E010EF86E01EE11F110EE0AF027
:10FF0C000900F5C4EEF4E550E150FAE101EE01F11F
:10FF1C00100EEE6AE806FDE10001B1EFFFF01D687E
:10FF2C001E681B501C10D8A49EEFFFF0A0EFFFF032
:10FF3C00A3EFFFF0B18EB0EFFFF003011A9F1B503F
:10FF4C001D5E1C501E5A1E50196F610074F418F37C
:10FF5C00B19E1A8F1200048E56ECFFF06BECFFF082
:10FF6C005DECFFF063ECFFF0D1ECFFF0BE9E57ECC4
:10FF7C00FFF0030E1C6EE80E1B6E95ECFFF0B1AE9D
:10FF8C00CAEFFFF0CCEFFFF0C5EFFFF0BE8EBAEF7B
:10FF9C00FFF0FEEFFFF00D4A0E2A640E0D180E1046
:10FFAC00D8A4DBEFFFF0DDEFFFF0FDEFFFF0000E6C
:10FFBC000E6E000E0D6E6100F8F21BF5C00E1B16D6
:10FFCC00110E0F24D96EDA6A050EDA22DF501B12DD
:10FFDC0061006CF4BEF40F2A0A0E0F18D8A4F9EFC6
:10FFEC00FFF0FBEFFFF0FDEFFFF0000E0F6E1200C5
:04FFFC007CEFFFF0A7
:020000040020DA
:10000000FF0FFF0FFF0FFF0FFF0FFF0FFF0FFF0F80
:10001000FF0FFF0FFF0FFF0FFF0FFF0FFF0FFF0F70
:020000040030CA
:0A0000008CFEFFFC9FFFFFFFFFFFD7
:00000001FF
